{"abi":[{"type":"constructor","inputs":[{"name":"entranceFee","type":"uint256","internalType":"uint256"},{"name":"interval","type":"uint256","internalType":"uint256"},{"name":"_vrfCoordinator","type":"address","internalType":"address"},{"name":"gasLane","type":"bytes32","internalType":"bytes32"},{"name":"subscriptionId","type":"uint256","internalType":"uint256"},{"name":"callbackGaslimit","type":"uint32","internalType":"uint32"}],"stateMutability":"nonpayable"},{"type":"function","name":"acceptOwnership","inputs":[],"outputs":[],"stateMutability":"nonpayable"},{"type":"function","name":"checkUpkeep","inputs":[{"name":"","type":"bytes","internalType":"bytes"}],"outputs":[{"name":"upkeepNeeded","type":"bool","internalType":"bool"},{"name":"","type":"bytes","internalType":"bytes"}],"stateMutability":"view"},{"type":"function","name":"enterRaffle","inputs":[],"outputs":[],"stateMutability":"payable"},{"type":"function","name":"getParticipant","inputs":[{"name":"index","type":"uint256","internalType":"uint256"}],"outputs":[{"name":"","type":"address","internalType":"address"}],"stateMutability":"view"},{"type":"function","name":"getRafflePrice","inputs":[],"outputs":[{"name":"","type":"uint256","internalType":"uint256"}],"stateMutability":"view"},{"type":"function","name":"getState","inputs":[],"outputs":[{"name":"","type":"uint8","internalType":"enum Raffle.RaffleState"}],"stateMutability":"view"},{"type":"function","name":"getTotalParticipants","inputs":[],"outputs":[{"name":"","type":"uint256","internalType":"uint256"}],"stateMutability":"view"},{"type":"function","name":"owner","inputs":[],"outputs":[{"name":"","type":"address","internalType":"address"}],"stateMutability":"view"},{"type":"function","name":"pickWinner","inputs":[{"name":"","type":"bytes","internalType":"bytes"}],"outputs":[],"stateMutability":"nonpayable"},{"type":"function","name":"rawFulfillRandomWords","inputs":[{"name":"requestId","type":"uint256","internalType":"uint256"},{"name":"randomWords","type":"uint256[]","internalType":"uint256[]"}],"outputs":[],"stateMutability":"nonpayable"},{"type":"function","name":"s_vrfCoordinator","inputs":[],"outputs":[{"name":"","type":"address","internalType":"contract IVRFCoordinatorV2Plus"}],"stateMutability":"view"},{"type":"function","name":"setCoordinator","inputs":[{"name":"_vrfCoordinator","type":"address","internalType":"address"}],"outputs":[],"stateMutability":"nonpayable"},{"type":"function","name":"transferOwnership","inputs":[{"name":"to","type":"address","internalType":"address"}],"outputs":[],"stateMutability":"nonpayable"},{"type":"event","name":"CoordinatorSet","inputs":[{"name":"vrfCoordinator","type":"address","indexed":false,"internalType":"address"}],"anonymous":false},{"type":"event","name":"OwnershipTransferRequested","inputs":[{"name":"from","type":"address","indexed":true,"internalType":"address"},{"name":"to","type":"address","indexed":true,"internalType":"address"}],"anonymous":false},{"type":"event","name":"OwnershipTransferred","inputs":[{"name":"from","type":"address","indexed":true,"internalType":"address"},{"name":"to","type":"address","indexed":true,"internalType":"address"}],"anonymous":false},{"type":"event","name":"RaffledSuccessfully","inputs":[{"name":"player","type":"address","indexed":true,"internalType":"address"}],"anonymous":false},{"type":"event","name":"WinnerPicked","inputs":[{"name":"winner","type":"address","indexed":true,"internalType":"address"}],"anonymous":false},{"type":"error","name":"OnlyCoordinatorCanFulfill","inputs":[{"name":"have","type":"address","internalType":"address"},{"name":"want","type":"address","internalType":"address"}]},{"type":"error","name":"OnlyOwnerOrCoordinator","inputs":[{"name":"have","type":"address","internalType":"address"},{"name":"owner","type":"address","internalType":"address"},{"name":"coordinator","type":"address","internalType":"address"}]},{"type":"error","name":"Raffle_UpkeepNotNeeded","inputs":[{"name":"balance","type":"uint256","internalType":"uint256"},{"name":"state","type":"uint256","internalType":"uint256"}]},{"type":"error","name":"Raffle__RaffleNotOpen","inputs":[]},{"type":"error","name":"Raffle__fundMoreToEnterRaffle","inputs":[]},{"type":"error","name":"Raffle__withdrawUnsuccessful","inputs":[]},{"type":"error","name":"ZeroAddress","inputs":[]}],"bytecode":{"object":"0x6101206040523480156200001257600080fd5b5060405162002394380380620023948339818101604052810190620000389190620004a7565b83338060008073ffffffffffffffffffffffffffffffffffffffff168273ffffffffffffffffffffffffffffffffffffffff1603620000ae576040517f08c379a0000000000000000000000000000000000000000000000000000000008152600401620000a590620005a4565b60405180910390fd5b816000806101000a81548173ffffffffffffffffffffffffffffffffffffffff021916908373ffffffffffffffffffffffffffffffffffffffff160217905550600073ffffffffffffffffffffffffffffffffffffffff168173ffffffffffffffffffffffffffffffffffffffff1614620001355762000134816200025760201b60201c565b5b505050600073ffffffffffffffffffffffffffffffffffffffff168173ffffffffffffffffffffffffffffffffffffffff16036200019f576040517fd92e233d00000000000000000000000000000000000000000000000000000000815260040160405180910390fd5b80600260006101000a81548173ffffffffffffffffffffffffffffffffffffffff021916908373ffffffffffffffffffffffffffffffffffffffff1602179055505085608081815250508460a081815250508260c081815250508160e081815250508063ffffffff166101008163ffffffff1681525050426004819055506000600560146101000a81548160ff02191690836001811115620002465762000245620005c6565b5b021790555050505050505062000667565b3373ffffffffffffffffffffffffffffffffffffffff168173ffffffffffffffffffffffffffffffffffffffff1603620002c8576040517f08c379a0000000000000000000000000000000000000000000000000000000008152600401620002bf9062000645565b60405180910390fd5b80600160006101000a81548173ffffffffffffffffffffffffffffffffffffffff021916908373ffffffffffffffffffffffffffffffffffffffff1602179055508073ffffffffffffffffffffffffffffffffffffffff1660008054906101000a900473ffffffffffffffffffffffffffffffffffffffff1673ffffffffffffffffffffffffffffffffffffffff167fed8889f560326eb138920d842192f0eb3dd22b4f139c87a2c57538e05bae127860405160405180910390a350565b600080fd5b6000819050919050565b620003a0816200038b565b8114620003ac57600080fd5b50565b600081519050620003c08162000395565b92915050565b600073ffffffffffffffffffffffffffffffffffffffff82169050919050565b6000620003f382620003c6565b9050919050565b6200040581620003e6565b81146200041157600080fd5b50565b6000815190506200042581620003fa565b92915050565b6000819050919050565b62000440816200042b565b81146200044c57600080fd5b50565b600081519050620004608162000435565b92915050565b600063ffffffff82169050919050565b620004818162000466565b81146200048d57600080fd5b50565b600081519050620004a18162000476565b92915050565b60008060008060008060c08789031215620004c757620004c662000386565b5b6000620004d789828a01620003af565b9650506020620004ea89828a01620003af565b9550506040620004fd89828a0162000414565b94505060606200051089828a016200044f565b93505060806200052389828a01620003af565b92505060a06200053689828a0162000490565b9150509295509295509295565b600082825260208201905092915050565b7f43616e6e6f7420736574206f776e657220746f207a65726f0000000000000000600082015250565b60006200058c60188362000543565b9150620005998262000554565b602082019050919050565b60006020820190508181036000830152620005bf816200057d565b9050919050565b7f4e487b7100000000000000000000000000000000000000000000000000000000600052602160045260246000fd5b7f43616e6e6f74207472616e7366657220746f2073656c66000000000000000000600082015250565b60006200062d60178362000543565b91506200063a82620005f5565b602082019050919050565b6000602082019050818103600083015262000660816200061e565b9050919050565b60805160a05160c05160e05161010051611ce1620006b36000396000610b4001526000610b0f01526000610ae9015260006105a201526000818161040501526105760152611ce16000f3fe6080604052600436106100c25760003560e01c806379ba50971161007f5780639eccacf6116100595780639eccacf614610236578063a90cc44514610261578063ee6ac5581461028c578063f2fde38b146102b5576100c2565b806379ba5097146101cb5780638da5cb5b146101e25780638ea981171461020d576100c2565b80631865c57d146100c75780631b9db2ef146100f25780631fe543e31461012f5780632cfcc539146101585780635652f641146101625780636e04ff0d1461018d575b600080fd5b3480156100d357600080fd5b506100dc6102de565b6040516100e9919061120d565b60405180910390f35b3480156100fe57600080fd5b5061011960048036038101906101149190611272565b6102f5565b60405161012691906112e0565b60405180910390f35b34801561013b57600080fd5b5061015660048036038101906101519190611360565b61033d565b005b610160610403565b005b34801561016e57600080fd5b50610177610572565b60405161018491906113cf565b60405180910390f35b34801561019957600080fd5b506101b460048036038101906101af919061152b565b61059a565b6040516101c292919061160e565b60405180910390f35b3480156101d757600080fd5b506101e061065b565b005b3480156101ee57600080fd5b506101f76107f0565b60405161020491906112e0565b60405180910390f35b34801561021957600080fd5b50610234600480360381019061022f919061166a565b610819565b005b34801561024257600080fd5b5061024b6109fa565b60405161025891906116f6565b60405180910390f35b34801561026d57600080fd5b50610276610a20565b60405161028391906113cf565b60405180910390f35b34801561029857600080fd5b506102b360048036038101906102ae9190611767565b610a2d565b005b3480156102c157600080fd5b506102dc60048036038101906102d7919061166a565b610c3b565b005b6000600560149054906101000a900460ff16905090565b60006003828154811061030b5761030a6117b4565b5b9060005260206000200160009054906101000a900473ffffffffffffffffffffffffffffffffffffffff169050919050565b600260009054906101000a900473ffffffffffffffffffffffffffffffffffffffff1673ffffffffffffffffffffffffffffffffffffffff163373ffffffffffffffffffffffffffffffffffffffff16146103f35733600260009054906101000a900473ffffffffffffffffffffffffffffffffffffffff166040517f1cf993f40000000000000000000000000000000000000000000000000000000081526004016103ea9291906117e3565b60405180910390fd5b6103fe838383610c4f565b505050565b7f000000000000000000000000000000000000000000000000000000000000000034101561045d576040517fd35a677200000000000000000000000000000000000000000000000000000000815260040160405180910390fd5b6000600181111561047157610470611196565b5b600560149054906101000a900460ff16600181111561049357610492611196565b5b146104ca576040517fd24a271400000000000000000000000000000000000000000000000000000000815260040160405180910390fd5b6003339080600181540180825580915050600190039060005260206000200160009091909190916101000a81548173ffffffffffffffffffffffffffffffffffffffff021916908373ffffffffffffffffffffffffffffffffffffffff1602179055503373ffffffffffffffffffffffffffffffffffffffff167f1117208af0eb9d4732878f74c238a13a7c005ac7705431426163af0b2e9b402b60405160405180910390a2565b60007f0000000000000000000000000000000000000000000000000000000000000000905090565b6000606060007f0000000000000000000000000000000000000000000000000000000000000000600454426105cf919061183b565b11905060008060018111156105e7576105e6611196565b5b600560149054906101000a900460ff16600181111561060957610608611196565b5b149050600080600380549050119050600080471190508380156106295750825b80156106325750815b801561063b5750805b955085604051806020016040528060008152509550955050505050915091565b600160009054906101000a900473ffffffffffffffffffffffffffffffffffffffff1673ffffffffffffffffffffffffffffffffffffffff163373ffffffffffffffffffffffffffffffffffffffff16146106eb576040517f08c379a00000000000000000000000000000000000000000000000000000000081526004016106e2906118cc565b60405180910390fd5b60008060009054906101000a900473ffffffffffffffffffffffffffffffffffffffff169050336000806101000a81548173ffffffffffffffffffffffffffffffffffffffff021916908373ffffffffffffffffffffffffffffffffffffffff1602179055506000600160006101000a81548173ffffffffffffffffffffffffffffffffffffffff021916908373ffffffffffffffffffffffffffffffffffffffff1602179055503373ffffffffffffffffffffffffffffffffffffffff168173ffffffffffffffffffffffffffffffffffffffff167f8be0079c531659141344cd1fd0a4f28419497f9722a3daafe3b4186f6b6457e060405160405180910390a350565b60008060009054906101000a900473ffffffffffffffffffffffffffffffffffffffff16905090565b6108216107f0565b73ffffffffffffffffffffffffffffffffffffffff163373ffffffffffffffffffffffffffffffffffffffff16141580156108aa5750600260009054906101000a900473ffffffffffffffffffffffffffffffffffffffff1673ffffffffffffffffffffffffffffffffffffffff163373ffffffffffffffffffffffffffffffffffffffff1614155b1561091957336108b86107f0565b600260009054906101000a900473ffffffffffffffffffffffffffffffffffffffff166040517f061db9c1000000000000000000000000000000000000000000000000000000008152600401610910939291906118ec565b60405180910390fd5b600073ffffffffffffffffffffffffffffffffffffffff168173ffffffffffffffffffffffffffffffffffffffff160361097f576040517fd92e233d00000000000000000000000000000000000000000000000000000000815260040160405180910390fd5b80600260006101000a81548173ffffffffffffffffffffffffffffffffffffffff021916908373ffffffffffffffffffffffffffffffffffffffff1602179055507fd1a6a14209a385a964d036e404cb5cfb71f4000cdb03c9366292430787261be6816040516109ef91906112e0565b60405180910390a150565b600260009054906101000a900473ffffffffffffffffffffffffffffffffffffffff1681565b6000600380549050905090565b6000610a476040518060200160405280600081525061059a565b50905080610aaf5747600560149054906101000a900460ff166001811115610a7257610a71611196565b5b6040517f096b6bce000000000000000000000000000000000000000000000000000000008152600401610aa6929190611923565b60405180910390fd5b6001600560146101000a81548160ff02191690836001811115610ad557610ad4611196565b5b021790555060006040518060c001604052807f000000000000000000000000000000000000000000000000000000000000000081526020017f00000000000000000000000000000000000000000000000000000000000000008152602001600361ffff1681526020017f000000000000000000000000000000000000000000000000000000000000000063ffffffff168152602001600163ffffffff168152602001610b91604051806020016040528060001515815250610e9b565b8152509050600260009054906101000a900473ffffffffffffffffffffffffffffffffffffffff1673ffffffffffffffffffffffffffffffffffffffff16639b1c385e826040518263ffffffff1660e01b8152600401610bf19190611a83565b6020604051808303816000875af1158015610c10573d6000803e3d6000fd5b505050506040513d601f19601f82011682018060405250810190610c349190611aba565b5050505050565b610c43610f33565b610c4c81610fc3565b50565b600060038054905083836000818110610c6b57610c6a6117b4565b5b90506020020135610c7c9190611b16565b9050600060038281548110610c9457610c936117b4565b5b9060005260206000200160009054906101000a900473ffffffffffffffffffffffffffffffffffffffff16905080600560006101000a81548173ffffffffffffffffffffffffffffffffffffffff021916908373ffffffffffffffffffffffffffffffffffffffff160217905550600067ffffffffffffffff811115610d1d57610d1c611400565b5b604051908082528060200260200182016040528015610d4b5781602001602082028036833780820191505090505b5060039080519060200190610d619291906110ef565b5042600481905550600560009054906101000a900473ffffffffffffffffffffffffffffffffffffffff1673ffffffffffffffffffffffffffffffffffffffff167f5b690ec4a06fe979403046eaeea5b3ce38524683c3001f662c8b5a829632f7df60405160405180910390a26000600560009054906101000a900473ffffffffffffffffffffffffffffffffffffffff1673ffffffffffffffffffffffffffffffffffffffff1647604051610e1690611b78565b60006040518083038185875af1925050503d8060008114610e53576040519150601f19603f3d011682016040523d82523d6000602084013e610e58565b606091505b5050905080610e93576040517f4b5a74c700000000000000000000000000000000000000000000000000000000815260040160405180910390fd5b505050505050565b60607f92fd13387c7fe7befbc38d303d6468778fb9731bc4583f17d92989c6fcfdeaaa82604051602401610ecf9190611bb8565b604051602081830303815290604052907bffffffffffffffffffffffffffffffffffffffffffffffffffffffff19166020820180517bffffffffffffffffffffffffffffffffffffffffffffffffffffffff83818316178352505050509050919050565b60008054906101000a900473ffffffffffffffffffffffffffffffffffffffff1673ffffffffffffffffffffffffffffffffffffffff163373ffffffffffffffffffffffffffffffffffffffff1614610fc1576040517f08c379a0000000000000000000000000000000000000000000000000000000008152600401610fb890611c1f565b60405180910390fd5b565b3373ffffffffffffffffffffffffffffffffffffffff168173ffffffffffffffffffffffffffffffffffffffff1603611031576040517f08c379a000000000000000000000000000000000000000000000000000000000815260040161102890611c8b565b60405180910390fd5b80600160006101000a81548173ffffffffffffffffffffffffffffffffffffffff021916908373ffffffffffffffffffffffffffffffffffffffff1602179055508073ffffffffffffffffffffffffffffffffffffffff1660008054906101000a900473ffffffffffffffffffffffffffffffffffffffff1673ffffffffffffffffffffffffffffffffffffffff167fed8889f560326eb138920d842192f0eb3dd22b4f139c87a2c57538e05bae127860405160405180910390a350565b828054828255906000526020600020908101928215611168579160200282015b828111156111675782518260006101000a81548173ffffffffffffffffffffffffffffffffffffffff021916908373ffffffffffffffffffffffffffffffffffffffff1602179055509160200191906001019061110f565b5b5090506111759190611179565b5090565b5b8082111561119257600081600090555060010161117a565b5090565b7f4e487b7100000000000000000000000000000000000000000000000000000000600052602160045260246000fd5b600281106111d6576111d5611196565b5b50565b60008190506111e7826111c5565b919050565b60006111f7826111d9565b9050919050565b611207816111ec565b82525050565b600060208201905061122260008301846111fe565b92915050565b6000604051905090565b600080fd5b600080fd5b6000819050919050565b61124f8161123c565b811461125a57600080fd5b50565b60008135905061126c81611246565b92915050565b60006020828403121561128857611287611232565b5b60006112968482850161125d565b91505092915050565b600073ffffffffffffffffffffffffffffffffffffffff82169050919050565b60006112ca8261129f565b9050919050565b6112da816112bf565b82525050565b60006020820190506112f560008301846112d1565b92915050565b600080fd5b600080fd5b600080fd5b60008083601f8401126113205761131f6112fb565b5b8235905067ffffffffffffffff81111561133d5761133c611300565b5b60208301915083602082028301111561135957611358611305565b5b9250929050565b60008060006040848603121561137957611378611232565b5b60006113878682870161125d565b935050602084013567ffffffffffffffff8111156113a8576113a7611237565b5b6113b48682870161130a565b92509250509250925092565b6113c98161123c565b82525050565b60006020820190506113e460008301846113c0565b92915050565b600080fd5b6000601f19601f8301169050919050565b7f4e487b7100000000000000000000000000000000000000000000000000000000600052604160045260246000fd5b611438826113ef565b810181811067ffffffffffffffff8211171561145757611456611400565b5b80604052505050565b600061146a611228565b9050611476828261142f565b919050565b600067ffffffffffffffff82111561149657611495611400565b5b61149f826113ef565b9050602081019050919050565b82818337600083830152505050565b60006114ce6114c98461147b565b611460565b9050828152602081018484840111156114ea576114e96113ea565b5b6114f58482856114ac565b509392505050565b600082601f830112611512576115116112fb565b5b81356115228482602086016114bb565b91505092915050565b60006020828403121561154157611540611232565b5b600082013567ffffffffffffffff81111561155f5761155e611237565b5b61156b848285016114fd565b91505092915050565b60008115159050919050565b61158981611574565b82525050565b600081519050919050565b600082825260208201905092915050565b60005b838110156115c95780820151818401526020810190506115ae565b60008484015250505050565b60006115e08261158f565b6115ea818561159a565b93506115fa8185602086016115ab565b611603816113ef565b840191505092915050565b60006040820190506116236000830185611580565b818103602083015261163581846115d5565b90509392505050565b611647816112bf565b811461165257600080fd5b50565b6000813590506116648161163e565b92915050565b6000602082840312156116805761167f611232565b5b600061168e84828501611655565b91505092915050565b6000819050919050565b60006116bc6116b76116b28461129f565b611697565b61129f565b9050919050565b60006116ce826116a1565b9050919050565b60006116e0826116c3565b9050919050565b6116f0816116d5565b82525050565b600060208201905061170b60008301846116e7565b92915050565b60008083601f840112611727576117266112fb565b5b8235905067ffffffffffffffff81111561174457611743611300565b5b6020830191508360018202830111156117605761175f611305565b5b9250929050565b6000806020838503121561177e5761177d611232565b5b600083013567ffffffffffffffff81111561179c5761179b611237565b5b6117a885828601611711565b92509250509250929050565b7f4e487b7100000000000000000000000000000000000000000000000000000000600052603260045260246000fd5b60006040820190506117f860008301856112d1565b61180560208301846112d1565b9392505050565b7f4e487b7100000000000000000000000000000000000000000000000000000000600052601160045260246000fd5b60006118468261123c565b91506118518361123c565b92508282039050818111156118695761186861180c565b5b92915050565b600082825260208201905092915050565b7f4d7573742062652070726f706f736564206f776e657200000000000000000000600082015250565b60006118b660168361186f565b91506118c182611880565b602082019050919050565b600060208201905081810360008301526118e5816118a9565b9050919050565b600060608201905061190160008301866112d1565b61190e60208301856112d1565b61191b60408301846112d1565b949350505050565b600060408201905061193860008301856113c0565b61194560208301846113c0565b9392505050565b6000819050919050565b61195f8161194c565b82525050565b61196e8161123c565b82525050565b600061ffff82169050919050565b61198b81611974565b82525050565b600063ffffffff82169050919050565b6119aa81611991565b82525050565b600082825260208201905092915050565b60006119cc8261158f565b6119d681856119b0565b93506119e68185602086016115ab565b6119ef816113ef565b840191505092915050565b600060c083016000830151611a126000860182611956565b506020830151611a256020860182611965565b506040830151611a386040860182611982565b506060830151611a4b60608601826119a1565b506080830151611a5e60808601826119a1565b5060a083015184820360a0860152611a7682826119c1565b9150508091505092915050565b60006020820190508181036000830152611a9d81846119fa565b905092915050565b600081519050611ab481611246565b92915050565b600060208284031215611ad057611acf611232565b5b6000611ade84828501611aa5565b91505092915050565b7f4e487b7100000000000000000000000000000000000000000000000000000000600052601260045260246000fd5b6000611b218261123c565b9150611b2c8361123c565b925082611b3c57611b3b611ae7565b5b828206905092915050565b600081905092915050565b50565b6000611b62600083611b47565b9150611b6d82611b52565b600082019050919050565b6000611b8382611b55565b9150819050919050565b611b9681611574565b82525050565b602082016000820151611bb26000850182611b8d565b50505050565b6000602082019050611bcd6000830184611b9c565b92915050565b7f4f6e6c792063616c6c61626c65206279206f776e657200000000000000000000600082015250565b6000611c0960168361186f565b9150611c1482611bd3565b602082019050919050565b60006020820190508181036000830152611c3881611bfc565b9050919050565b7f43616e6e6f74207472616e7366657220746f2073656c66000000000000000000600082015250565b6000611c7560178361186f565b9150611c8082611c3f565b602082019050919050565b60006020820190508181036000830152611ca481611c68565b905091905056fea2646970667358221220a27156001c8d2be1f8518ce149f901d68bab766319a63e6ce2f423e85746e7f264736f6c63430008130033","linkReferences":{}},"methodIdentifiers":{"acceptOwnership()":"79ba5097","checkUpkeep(bytes)":"6e04ff0d","enterRaffle()":"2cfcc539","getParticipant(uint256)":"1b9db2ef","getRafflePrice()":"5652f641","getState()":"1865c57d","getTotalParticipants()":"a90cc445","owner()":"8da5cb5b","pickWinner(bytes)":"ee6ac558","rawFulfillRandomWords(uint256,uint256[])":"1fe543e3","s_vrfCoordinator()":"9eccacf6","setCoordinator(address)":"8ea98117","transferOwnership(address)":"f2fde38b"},"id":40}