{"abi":[{"type":"constructor","inputs":[{"name":"entranceFee","type":"uint256","internalType":"uint256"},{"name":"interval","type":"uint256","internalType":"uint256"},{"name":"_vrfCoordinator","type":"address","internalType":"address"},{"name":"gasLane","type":"bytes32","internalType":"bytes32"},{"name":"subscriptionId","type":"uint256","internalType":"uint256"},{"name":"callbackGaslimit","type":"uint32","internalType":"uint32"}],"stateMutability":"nonpayable"},{"type":"function","name":"acceptOwnership","inputs":[],"outputs":[],"stateMutability":"nonpayable"},{"type":"function","name":"checkUpkeep","inputs":[{"name":"","type":"bytes","internalType":"bytes"}],"outputs":[{"name":"upkeepNeeded","type":"bool","internalType":"bool"},{"name":"","type":"bytes","internalType":"bytes"}],"stateMutability":"view"},{"type":"function","name":"enterRaffle","inputs":[],"outputs":[],"stateMutability":"payable"},{"type":"function","name":"getContractBalance","inputs":[],"outputs":[{"name":"","type":"uint256","internalType":"uint256"}],"stateMutability":"view"},{"type":"function","name":"getLastTimestamp","inputs":[],"outputs":[{"name":"","type":"uint256","internalType":"uint256"}],"stateMutability":"view"},{"type":"function","name":"getParticipant","inputs":[{"name":"index","type":"uint256","internalType":"uint256"}],"outputs":[{"name":"","type":"address","internalType":"address"}],"stateMutability":"view"},{"type":"function","name":"getRafflePrice","inputs":[],"outputs":[{"name":"","type":"uint256","internalType":"uint256"}],"stateMutability":"view"},{"type":"function","name":"getRecentWinner","inputs":[],"outputs":[{"name":"","type":"address","internalType":"address"}],"stateMutability":"view"},{"type":"function","name":"getState","inputs":[],"outputs":[{"name":"","type":"uint8","internalType":"enum Raffle.RaffleState"}],"stateMutability":"view"},{"type":"function","name":"getTotalParticipants","inputs":[],"outputs":[{"name":"","type":"uint256","internalType":"uint256"}],"stateMutability":"view"},{"type":"function","name":"owner","inputs":[],"outputs":[{"name":"","type":"address","internalType":"address"}],"stateMutability":"view"},{"type":"function","name":"performUpkeep","inputs":[{"name":"","type":"bytes","internalType":"bytes"}],"outputs":[],"stateMutability":"nonpayable"},{"type":"function","name":"rawFulfillRandomWords","inputs":[{"name":"requestId","type":"uint256","internalType":"uint256"},{"name":"randomWords","type":"uint256[]","internalType":"uint256[]"}],"outputs":[],"stateMutability":"nonpayable"},{"type":"function","name":"s_vrfCoordinator","inputs":[],"outputs":[{"name":"","type":"address","internalType":"contract IVRFCoordinatorV2Plus"}],"stateMutability":"view"},{"type":"function","name":"setCoordinator","inputs":[{"name":"_vrfCoordinator","type":"address","internalType":"address"}],"outputs":[],"stateMutability":"nonpayable"},{"type":"function","name":"transferOwnership","inputs":[{"name":"to","type":"address","internalType":"address"}],"outputs":[],"stateMutability":"nonpayable"},{"type":"event","name":"CoordinatorSet","inputs":[{"name":"vrfCoordinator","type":"address","indexed":false,"internalType":"address"}],"anonymous":false},{"type":"event","name":"OwnershipTransferRequested","inputs":[{"name":"from","type":"address","indexed":true,"internalType":"address"},{"name":"to","type":"address","indexed":true,"internalType":"address"}],"anonymous":false},{"type":"event","name":"OwnershipTransferred","inputs":[{"name":"from","type":"address","indexed":true,"internalType":"address"},{"name":"to","type":"address","indexed":true,"internalType":"address"}],"anonymous":false},{"type":"event","name":"RaffledSuccessfully","inputs":[{"name":"player","type":"address","indexed":true,"internalType":"address"}],"anonymous":false},{"type":"event","name":"RequestedRaffleWinner","inputs":[{"name":"requestId","type":"uint256","indexed":true,"internalType":"uint256"}],"anonymous":false},{"type":"event","name":"WinnerPicked","inputs":[{"name":"winner","type":"address","indexed":true,"internalType":"address"}],"anonymous":false},{"type":"error","name":"OnlyCoordinatorCanFulfill","inputs":[{"name":"have","type":"address","internalType":"address"},{"name":"want","type":"address","internalType":"address"}]},{"type":"error","name":"OnlyOwnerOrCoordinator","inputs":[{"name":"have","type":"address","internalType":"address"},{"name":"owner","type":"address","internalType":"address"},{"name":"coordinator","type":"address","internalType":"address"}]},{"type":"error","name":"Raffle_UpkeepNotNeeded","inputs":[{"name":"balance","type":"uint256","internalType":"uint256"},{"name":"state","type":"uint256","internalType":"uint256"}]},{"type":"error","name":"Raffle__NoParticipantsInRaffle","inputs":[{"name":"participants","type":"address[]","internalType":"address payable[]"}]},{"type":"error","name":"Raffle__RaffleNotOpen","inputs":[]},{"type":"error","name":"Raffle__fundMoreToEnterRaffle","inputs":[]},{"type":"error","name":"Raffle__withdrawUnsuccessful","inputs":[]},{"type":"error","name":"ZeroAddress","inputs":[]}],"bytecode":{"object":"0x6101206040523480156200001257600080fd5b506040516200279e3803806200279e8339818101604052810190620000389190620004a7565b83338060008073ffffffffffffffffffffffffffffffffffffffff168273ffffffffffffffffffffffffffffffffffffffff1603620000ae576040517f08c379a0000000000000000000000000000000000000000000000000000000008152600401620000a590620005a4565b60405180910390fd5b816000806101000a81548173ffffffffffffffffffffffffffffffffffffffff021916908373ffffffffffffffffffffffffffffffffffffffff160217905550600073ffffffffffffffffffffffffffffffffffffffff168173ffffffffffffffffffffffffffffffffffffffff1614620001355762000134816200025760201b60201c565b5b505050600073ffffffffffffffffffffffffffffffffffffffff168173ffffffffffffffffffffffffffffffffffffffff16036200019f576040517fd92e233d00000000000000000000000000000000000000000000000000000000815260040160405180910390fd5b80600260006101000a81548173ffffffffffffffffffffffffffffffffffffffff021916908373ffffffffffffffffffffffffffffffffffffffff1602179055505085608081815250508460a081815250508260c081815250508160e081815250508063ffffffff166101008163ffffffff1681525050426004819055506000600560146101000a81548160ff02191690836001811115620002465762000245620005c6565b5b021790555050505050505062000667565b3373ffffffffffffffffffffffffffffffffffffffff168173ffffffffffffffffffffffffffffffffffffffff1603620002c8576040517f08c379a0000000000000000000000000000000000000000000000000000000008152600401620002bf9062000645565b60405180910390fd5b80600160006101000a81548173ffffffffffffffffffffffffffffffffffffffff021916908373ffffffffffffffffffffffffffffffffffffffff1602179055508073ffffffffffffffffffffffffffffffffffffffff1660008054906101000a900473ffffffffffffffffffffffffffffffffffffffff1673ffffffffffffffffffffffffffffffffffffffff167fed8889f560326eb138920d842192f0eb3dd22b4f139c87a2c57538e05bae127860405160405180910390a350565b600080fd5b6000819050919050565b620003a0816200038b565b8114620003ac57600080fd5b50565b600081519050620003c08162000395565b92915050565b600073ffffffffffffffffffffffffffffffffffffffff82169050919050565b6000620003f382620003c6565b9050919050565b6200040581620003e6565b81146200041157600080fd5b50565b6000815190506200042581620003fa565b92915050565b6000819050919050565b62000440816200042b565b81146200044c57600080fd5b50565b600081519050620004608162000435565b92915050565b600063ffffffff82169050919050565b620004818162000466565b81146200048d57600080fd5b50565b600081519050620004a18162000476565b92915050565b60008060008060008060c08789031215620004c757620004c662000386565b5b6000620004d789828a01620003af565b9650506020620004ea89828a01620003af565b9550506040620004fd89828a0162000414565b94505060606200051089828a016200044f565b93505060806200052389828a01620003af565b92505060a06200053689828a0162000490565b9150509295509295509295565b600082825260208201905092915050565b7f43616e6e6f7420736574206f776e657220746f207a65726f0000000000000000600082015250565b60006200058c60188362000543565b9150620005998262000554565b602082019050919050565b60006020820190508181036000830152620005bf816200057d565b9050919050565b7f4e487b7100000000000000000000000000000000000000000000000000000000600052602160045260246000fd5b7f43616e6e6f74207472616e7366657220746f2073656c66000000000000000000600082015250565b60006200062d60178362000543565b91506200063a82620005f5565b602082019050919050565b6000602082019050818103600083015262000660816200061e565b9050919050565b60805160a05160c05160e051610100516120eb620006b3600039600061074101526000610710015260006106ea015260006108c70152600081816104b7015261089b01526120eb6000f3fe6080604052600436106100f35760003560e01c80636e04ff0d1161008a5780638ea98117116100595780638ea98117146102e85780639eccacf614610311578063a90cc4451461033c578063f2fde38b14610367576100f3565b80636e04ff0d1461023d5780636f9fb98a1461027b57806379ba5097146102a65780638da5cb5b146102bd576100f3565b806337899770116100c657806337899770146101935780634585e33b146101be578063473f1ddc146101e75780635652f64114610212576100f3565b80631865c57d146100f85780631b9db2ef146101235780631fe543e3146101605780632cfcc53914610189575b600080fd5b34801561010457600080fd5b5061010d610390565b60405161011a919061147a565b60405180910390f35b34801561012f57600080fd5b5061014a600480360381019061014591906114df565b6103a7565b604051610157919061154d565b60405180910390f35b34801561016c57600080fd5b50610187600480360381019061018291906115cd565b6103ef565b005b6101916104b5565b005b34801561019f57600080fd5b506101a8610624565b6040516101b5919061163c565b60405180910390f35b3480156101ca57600080fd5b506101e560048036038101906101e091906116ad565b61062e565b005b3480156101f357600080fd5b506101fc61086d565b604051610209919061154d565b60405180910390f35b34801561021e57600080fd5b50610227610897565b604051610234919061163c565b60405180910390f35b34801561024957600080fd5b50610264600480360381019061025f919061183b565b6108bf565b60405161027292919061191e565b60405180910390f35b34801561028757600080fd5b5061029061098d565b60405161029d919061163c565b60405180910390f35b3480156102b257600080fd5b506102bb610995565b005b3480156102c957600080fd5b506102d2610b2a565b6040516102df919061154d565b60405180910390f35b3480156102f457600080fd5b5061030f600480360381019061030a919061197a565b610b53565b005b34801561031d57600080fd5b50610326610d34565b6040516103339190611a06565b60405180910390f35b34801561034857600080fd5b50610351610d5a565b60405161035e919061163c565b60405180910390f35b34801561037357600080fd5b5061038e6004803603810190610389919061197a565b610d67565b005b6000600560149054906101000a900460ff16905090565b6000600382815481106103bd576103bc611a21565b5b9060005260206000200160009054906101000a900473ffffffffffffffffffffffffffffffffffffffff169050919050565b600260009054906101000a900473ffffffffffffffffffffffffffffffffffffffff1673ffffffffffffffffffffffffffffffffffffffff163373ffffffffffffffffffffffffffffffffffffffff16146104a55733600260009054906101000a900473ffffffffffffffffffffffffffffffffffffffff166040517f1cf993f400000000000000000000000000000000000000000000000000000000815260040161049c929190611a50565b60405180910390fd5b6104b0838383610d7b565b505050565b7f000000000000000000000000000000000000000000000000000000000000000034101561050f576040517fd35a677200000000000000000000000000000000000000000000000000000000815260040160405180910390fd5b6000600181111561052357610522611403565b5b600560149054906101000a900460ff16600181111561054557610544611403565b5b1461057c576040517fd24a271400000000000000000000000000000000000000000000000000000000815260040160405180910390fd5b6003339080600181540180825580915050600190039060005260206000200160009091909190916101000a81548173ffffffffffffffffffffffffffffffffffffffff021916908373ffffffffffffffffffffffffffffffffffffffff1602179055503373ffffffffffffffffffffffffffffffffffffffff167f1117208af0eb9d4732878f74c238a13a7c005ac7705431426163af0b2e9b402b60405160405180910390a2565b6000600454905090565b6000610648604051806020016040528060008152506108bf565b509050806106b05747600560149054906101000a900460ff16600181111561067357610672611403565b5b6040517f096b6bce0000000000000000000000000000000000000000000000000000000081526004016106a7929190611a79565b60405180910390fd5b6001600560146101000a81548160ff021916908360018111156106d6576106d5611403565b5b021790555060006040518060c001604052807f000000000000000000000000000000000000000000000000000000000000000081526020017f00000000000000000000000000000000000000000000000000000000000000008152602001600361ffff1681526020017f000000000000000000000000000000000000000000000000000000000000000063ffffffff168152602001600163ffffffff16815260200161079260405180602001604052806000151581525061103d565b81525090506000600260009054906101000a900473ffffffffffffffffffffffffffffffffffffffff1673ffffffffffffffffffffffffffffffffffffffff16639b1c385e836040518263ffffffff1660e01b81526004016107f49190611bd9565b6020604051808303816000875af1158015610813573d6000803e3d6000fd5b505050506040513d601f19601f820116820180604052508101906108379190611c10565b9050807fcd6e45c8998311cab7e9d4385596cac867e20a0587194b954fa3a731c93ce78b60405160405180910390a25050505050565b6000600560009054906101000a900473ffffffffffffffffffffffffffffffffffffffff16905090565b60007f0000000000000000000000000000000000000000000000000000000000000000905090565b6000606060007f0000000000000000000000000000000000000000000000000000000000000000600454426108f49190611c6c565b10159050600080600181111561090d5761090c611403565b5b600560149054906101000a900460ff16600181111561092f5761092e611403565b5b1490506000806003805490501190506000804711905083801561094f5750825b80156109585750815b80156109615750805b955061096f838584846110d5565b85604051806020016040528060008152509550955050505050915091565b600047905090565b600160009054906101000a900473ffffffffffffffffffffffffffffffffffffffff1673ffffffffffffffffffffffffffffffffffffffff163373ffffffffffffffffffffffffffffffffffffffff1614610a25576040517f08c379a0000000000000000000000000000000000000000000000000000000008152600401610a1c90611cfd565b60405180910390fd5b60008060009054906101000a900473ffffffffffffffffffffffffffffffffffffffff169050336000806101000a81548173ffffffffffffffffffffffffffffffffffffffff021916908373ffffffffffffffffffffffffffffffffffffffff1602179055506000600160006101000a81548173ffffffffffffffffffffffffffffffffffffffff021916908373ffffffffffffffffffffffffffffffffffffffff1602179055503373ffffffffffffffffffffffffffffffffffffffff168173ffffffffffffffffffffffffffffffffffffffff167f8be0079c531659141344cd1fd0a4f28419497f9722a3daafe3b4186f6b6457e060405160405180910390a350565b60008060009054906101000a900473ffffffffffffffffffffffffffffffffffffffff16905090565b610b5b610b2a565b73ffffffffffffffffffffffffffffffffffffffff163373ffffffffffffffffffffffffffffffffffffffff1614158015610be45750600260009054906101000a900473ffffffffffffffffffffffffffffffffffffffff1673ffffffffffffffffffffffffffffffffffffffff163373ffffffffffffffffffffffffffffffffffffffff1614155b15610c535733610bf2610b2a565b600260009054906101000a900473ffffffffffffffffffffffffffffffffffffffff166040517f061db9c1000000000000000000000000000000000000000000000000000000008152600401610c4a93929190611d1d565b60405180910390fd5b600073ffffffffffffffffffffffffffffffffffffffff168173ffffffffffffffffffffffffffffffffffffffff1603610cb9576040517fd92e233d00000000000000000000000000000000000000000000000000000000815260040160405180910390fd5b80600260006101000a81548173ffffffffffffffffffffffffffffffffffffffff021916908373ffffffffffffffffffffffffffffffffffffffff1602179055507fd1a6a14209a385a964d036e404cb5cfb71f4000cdb03c9366292430787261be681604051610d29919061154d565b60405180910390a150565b600260009054906101000a900473ffffffffffffffffffffffffffffffffffffffff1681565b6000600380549050905090565b610d6f611177565b610d7881611207565b50565b600060038054905003610dc65760036040517fc9289495000000000000000000000000000000000000000000000000000000008152600401610dbd9190611e8a565b60405180910390fd5b600060038054905083836000818110610de257610de1611a21565b5b90506020020135610df39190611edb565b9050600060038281548110610e0b57610e0a611a21565b5b9060005260206000200160009054906101000a900473ffffffffffffffffffffffffffffffffffffffff16905080600560006101000a81548173ffffffffffffffffffffffffffffffffffffffff021916908373ffffffffffffffffffffffffffffffffffffffff160217905550600067ffffffffffffffff811115610e9457610e93611710565b5b604051908082528060200260200182016040528015610ec25781602001602082028036833780820191505090505b5060039080519060200190610ed892919061135c565b506000600560146101000a81548160ff02191690836001811115610eff57610efe611403565b5b021790555042600481905550600560009054906101000a900473ffffffffffffffffffffffffffffffffffffffff1673ffffffffffffffffffffffffffffffffffffffff167f5b690ec4a06fe979403046eaeea5b3ce38524683c3001f662c8b5a829632f7df60405160405180910390a26000600560009054906101000a900473ffffffffffffffffffffffffffffffffffffffff1673ffffffffffffffffffffffffffffffffffffffff1647604051610fb890611f3d565b60006040518083038185875af1925050503d8060008114610ff5576040519150601f19603f3d011682016040523d82523d6000602084013e610ffa565b606091505b5050905080611035576040517f4b5a74c700000000000000000000000000000000000000000000000000000000815260040160405180910390fd5b505050505050565b60607f92fd13387c7fe7befbc38d303d6468778fb9731bc4583f17d92989c6fcfdeaaa826040516024016110719190611f7d565b604051602081830303815290604052907bffffffffffffffffffffffffffffffffffffffffffffffffffffffff19166020820180517bffffffffffffffffffffffffffffffffffffffffffffffffffffffff83818316178352505050509050919050565b611171848484846040516024016110ef9493929190611f98565b6040516020818303038152906040527f3b2a5ce0000000000000000000000000000000000000000000000000000000007bffffffffffffffffffffffffffffffffffffffffffffffffffffffff19166020820180517bffffffffffffffffffffffffffffffffffffffffffffffffffffffff8381831617835250505050611333565b50505050565b60008054906101000a900473ffffffffffffffffffffffffffffffffffffffff1673ffffffffffffffffffffffffffffffffffffffff163373ffffffffffffffffffffffffffffffffffffffff1614611205576040517f08c379a00000000000000000000000000000000000000000000000000000000081526004016111fc90612029565b60405180910390fd5b565b3373ffffffffffffffffffffffffffffffffffffffff168173ffffffffffffffffffffffffffffffffffffffff1603611275576040517f08c379a000000000000000000000000000000000000000000000000000000000815260040161126c90612095565b60405180910390fd5b80600160006101000a81548173ffffffffffffffffffffffffffffffffffffffff021916908373ffffffffffffffffffffffffffffffffffffffff1602179055508073ffffffffffffffffffffffffffffffffffffffff1660008054906101000a900473ffffffffffffffffffffffffffffffffffffffff1673ffffffffffffffffffffffffffffffffffffffff167fed8889f560326eb138920d842192f0eb3dd22b4f139c87a2c57538e05bae127860405160405180910390a350565b60008151905060006a636f6e736f6c652e6c6f679050602083016000808483855afa5050505050565b8280548282559060005260206000209081019282156113d5579160200282015b828111156113d45782518260006101000a81548173ffffffffffffffffffffffffffffffffffffffff021916908373ffffffffffffffffffffffffffffffffffffffff1602179055509160200191906001019061137c565b5b5090506113e291906113e6565b5090565b5b808211156113ff5760008160009055506001016113e7565b5090565b7f4e487b7100000000000000000000000000000000000000000000000000000000600052602160045260246000fd5b6002811061144357611442611403565b5b50565b600081905061145482611432565b919050565b600061146482611446565b9050919050565b61147481611459565b82525050565b600060208201905061148f600083018461146b565b92915050565b6000604051905090565b600080fd5b600080fd5b6000819050919050565b6114bc816114a9565b81146114c757600080fd5b50565b6000813590506114d9816114b3565b92915050565b6000602082840312156114f5576114f461149f565b5b6000611503848285016114ca565b91505092915050565b600073ffffffffffffffffffffffffffffffffffffffff82169050919050565b60006115378261150c565b9050919050565b6115478161152c565b82525050565b6000602082019050611562600083018461153e565b92915050565b600080fd5b600080fd5b600080fd5b60008083601f84011261158d5761158c611568565b5b8235905067ffffffffffffffff8111156115aa576115a961156d565b5b6020830191508360208202830111156115c6576115c5611572565b5b9250929050565b6000806000604084860312156115e6576115e561149f565b5b60006115f4868287016114ca565b935050602084013567ffffffffffffffff811115611615576116146114a4565b5b61162186828701611577565b92509250509250925092565b611636816114a9565b82525050565b6000602082019050611651600083018461162d565b92915050565b60008083601f84011261166d5761166c611568565b5b8235905067ffffffffffffffff81111561168a5761168961156d565b5b6020830191508360018202830111156116a6576116a5611572565b5b9250929050565b600080602083850312156116c4576116c361149f565b5b600083013567ffffffffffffffff8111156116e2576116e16114a4565b5b6116ee85828601611657565b92509250509250929050565b600080fd5b6000601f19601f8301169050919050565b7f4e487b7100000000000000000000000000000000000000000000000000000000600052604160045260246000fd5b611748826116ff565b810181811067ffffffffffffffff8211171561176757611766611710565b5b80604052505050565b600061177a611495565b9050611786828261173f565b919050565b600067ffffffffffffffff8211156117a6576117a5611710565b5b6117af826116ff565b9050602081019050919050565b82818337600083830152505050565b60006117de6117d98461178b565b611770565b9050828152602081018484840111156117fa576117f96116fa565b5b6118058482856117bc565b509392505050565b600082601f83011261182257611821611568565b5b81356118328482602086016117cb565b91505092915050565b6000602082840312156118515761185061149f565b5b600082013567ffffffffffffffff81111561186f5761186e6114a4565b5b61187b8482850161180d565b91505092915050565b60008115159050919050565b61189981611884565b82525050565b600081519050919050565b600082825260208201905092915050565b60005b838110156118d95780820151818401526020810190506118be565b60008484015250505050565b60006118f08261189f565b6118fa81856118aa565b935061190a8185602086016118bb565b611913816116ff565b840191505092915050565b60006040820190506119336000830185611890565b818103602083015261194581846118e5565b90509392505050565b6119578161152c565b811461196257600080fd5b50565b6000813590506119748161194e565b92915050565b6000602082840312156119905761198f61149f565b5b600061199e84828501611965565b91505092915050565b6000819050919050565b60006119cc6119c76119c28461150c565b6119a7565b61150c565b9050919050565b60006119de826119b1565b9050919050565b60006119f0826119d3565b9050919050565b611a00816119e5565b82525050565b6000602082019050611a1b60008301846119f7565b92915050565b7f4e487b7100000000000000000000000000000000000000000000000000000000600052603260045260246000fd5b6000604082019050611a65600083018561153e565b611a72602083018461153e565b9392505050565b6000604082019050611a8e600083018561162d565b611a9b602083018461162d565b9392505050565b6000819050919050565b611ab581611aa2565b82525050565b611ac4816114a9565b82525050565b600061ffff82169050919050565b611ae181611aca565b82525050565b600063ffffffff82169050919050565b611b0081611ae7565b82525050565b600082825260208201905092915050565b6000611b228261189f565b611b2c8185611b06565b9350611b3c8185602086016118bb565b611b45816116ff565b840191505092915050565b600060c083016000830151611b686000860182611aac565b506020830151611b7b6020860182611abb565b506040830151611b8e6040860182611ad8565b506060830151611ba16060860182611af7565b506080830151611bb46080860182611af7565b5060a083015184820360a0860152611bcc8282611b17565b9150508091505092915050565b60006020820190508181036000830152611bf38184611b50565b905092915050565b600081519050611c0a816114b3565b92915050565b600060208284031215611c2657611c2561149f565b5b6000611c3484828501611bfb565b91505092915050565b7f4e487b7100000000000000000000000000000000000000000000000000000000600052601160045260246000fd5b6000611c77826114a9565b9150611c82836114a9565b9250828203905081811115611c9a57611c99611c3d565b5b92915050565b600082825260208201905092915050565b7f4d7573742062652070726f706f736564206f776e657200000000000000000000600082015250565b6000611ce7601683611ca0565b9150611cf282611cb1565b602082019050919050565b60006020820190508181036000830152611d1681611cda565b9050919050565b6000606082019050611d32600083018661153e565b611d3f602083018561153e565b611d4c604083018461153e565b949350505050565b600081549050919050565b600082825260208201905092915050565b60008190508160005260206000209050919050565b6000611d908261150c565b9050919050565b611da081611d85565b82525050565b6000611db28383611d97565b60208301905092915050565b60008160001c9050919050565b600073ffffffffffffffffffffffffffffffffffffffff82169050919050565b6000611dfe611df983611dbe565b611dcb565b9050919050565b6000611e118254611deb565b9050919050565b6000600182019050919050565b6000611e3082611d54565b611e3a8185611d5f565b9350611e4583611d70565b8060005b83811015611e7d57611e5a82611e05565b611e648882611da6565b9750611e6f83611e18565b925050600181019050611e49565b5085935050505092915050565b60006020820190508181036000830152611ea48184611e25565b905092915050565b7f4e487b7100000000000000000000000000000000000000000000000000000000600052601260045260246000fd5b6000611ee6826114a9565b9150611ef1836114a9565b925082611f0157611f00611eac565b5b828206905092915050565b600081905092915050565b50565b6000611f27600083611f0c565b9150611f3282611f17565b600082019050919050565b6000611f4882611f1a565b9150819050919050565b611f5b81611884565b82525050565b602082016000820151611f776000850182611f52565b50505050565b6000602082019050611f926000830184611f61565b92915050565b6000608082019050611fad6000830187611890565b611fba6020830186611890565b611fc76040830185611890565b611fd46060830184611890565b95945050505050565b7f4f6e6c792063616c6c61626c65206279206f776e657200000000000000000000600082015250565b6000612013601683611ca0565b915061201e82611fdd565b602082019050919050565b6000602082019050818103600083015261204281612006565b9050919050565b7f43616e6e6f74207472616e7366657220746f2073656c66000000000000000000600082015250565b600061207f601783611ca0565b915061208a82612049565b602082019050919050565b600060208201905081810360008301526120ae81612072565b905091905056fea2646970667358221220af11149ea51797c4daf97e0bc0e18ed4b6f23e43b60631bc467641fca19b041364736f6c63430008130033","linkReferences":{}},"methodIdentifiers":{"acceptOwnership()":"79ba5097","checkUpkeep(bytes)":"6e04ff0d","enterRaffle()":"2cfcc539","getContractBalance()":"6f9fb98a","getLastTimestamp()":"37899770","getParticipant(uint256)":"1b9db2ef","getRafflePrice()":"5652f641","getRecentWinner()":"473f1ddc","getState()":"1865c57d","getTotalParticipants()":"a90cc445","owner()":"8da5cb5b","performUpkeep(bytes)":"4585e33b","rawFulfillRandomWords(uint256,uint256[])":"1fe543e3","s_vrfCoordinator()":"9eccacf6","setCoordinator(address)":"8ea98117","transferOwnership(address)":"f2fde38b"},"id":44}